{
  "_format": "hh-sol-artifact-1",
  "contractName": "ZendeskNFT",
  "sourceName": "contracts/ZendeskNFT.sol",
  "abi": [
    {
      "inputs": [
        {
          "internalType": "address",
          "name": "initialOwner",
          "type": "address"
        }
      ],
      "stateMutability": "nonpayable",
      "type": "constructor"
    },
    {
      "inputs": [
        {
          "internalType": "address",
          "name": "sender",
          "type": "address"
        },
        {
          "internalType": "uint256",
          "name": "tokenId",
          "type": "uint256"
        },
        {
          "internalType": "address",
          "name": "owner",
          "type": "address"
        }
      ],
      "name": "ERC721IncorrectOwner",
      "type": "error"
    },
    {
      "inputs": [
        {
          "internalType": "address",
          "name": "operator",
          "type": "address"
        },
        {
          "internalType": "uint256",
          "name": "tokenId",
          "type": "uint256"
        }
      ],
      "name": "ERC721InsufficientApproval",
      "type": "error"
    },
    {
      "inputs": [
        {
          "internalType": "address",
          "name": "approver",
          "type": "address"
        }
      ],
      "name": "ERC721InvalidApprover",
      "type": "error"
    },
    {
      "inputs": [
        {
          "internalType": "address",
          "name": "operator",
          "type": "address"
        }
      ],
      "name": "ERC721InvalidOperator",
      "type": "error"
    },
    {
      "inputs": [
        {
          "internalType": "address",
          "name": "owner",
          "type": "address"
        }
      ],
      "name": "ERC721InvalidOwner",
      "type": "error"
    },
    {
      "inputs": [
        {
          "internalType": "address",
          "name": "receiver",
          "type": "address"
        }
      ],
      "name": "ERC721InvalidReceiver",
      "type": "error"
    },
    {
      "inputs": [
        {
          "internalType": "address",
          "name": "sender",
          "type": "address"
        }
      ],
      "name": "ERC721InvalidSender",
      "type": "error"
    },
    {
      "inputs": [
        {
          "internalType": "uint256",
          "name": "tokenId",
          "type": "uint256"
        }
      ],
      "name": "ERC721NonexistentToken",
      "type": "error"
    },
    {
      "inputs": [
        {
          "internalType": "address",
          "name": "owner",
          "type": "address"
        }
      ],
      "name": "OwnableInvalidOwner",
      "type": "error"
    },
    {
      "inputs": [
        {
          "internalType": "address",
          "name": "account",
          "type": "address"
        }
      ],
      "name": "OwnableUnauthorizedAccount",
      "type": "error"
    },
    {
      "anonymous": false,
      "inputs": [
        {
          "indexed": true,
          "internalType": "address",
          "name": "owner",
          "type": "address"
        },
        {
          "indexed": true,
          "internalType": "address",
          "name": "approved",
          "type": "address"
        },
        {
          "indexed": true,
          "internalType": "uint256",
          "name": "tokenId",
          "type": "uint256"
        }
      ],
      "name": "Approval",
      "type": "event"
    },
    {
      "anonymous": false,
      "inputs": [
        {
          "indexed": true,
          "internalType": "address",
          "name": "owner",
          "type": "address"
        },
        {
          "indexed": true,
          "internalType": "address",
          "name": "operator",
          "type": "address"
        },
        {
          "indexed": false,
          "internalType": "bool",
          "name": "approved",
          "type": "bool"
        }
      ],
      "name": "ApprovalForAll",
      "type": "event"
    },
    {
      "anonymous": false,
      "inputs": [
        {
          "indexed": false,
          "internalType": "uint256",
          "name": "_fromTokenId",
          "type": "uint256"
        },
        {
          "indexed": false,
          "internalType": "uint256",
          "name": "_toTokenId",
          "type": "uint256"
        }
      ],
      "name": "BatchMetadataUpdate",
      "type": "event"
    },
    {
      "anonymous": false,
      "inputs": [
        {
          "indexed": false,
          "internalType": "uint256",
          "name": "_tokenId",
          "type": "uint256"
        }
      ],
      "name": "MetadataUpdate",
      "type": "event"
    },
    {
      "anonymous": false,
      "inputs": [
        {
          "indexed": true,
          "internalType": "address",
          "name": "previousOwner",
          "type": "address"
        },
        {
          "indexed": true,
          "internalType": "address",
          "name": "newOwner",
          "type": "address"
        }
      ],
      "name": "OwnershipTransferred",
      "type": "event"
    },
    {
      "anonymous": false,
      "inputs": [
        {
          "indexed": true,
          "internalType": "address",
          "name": "from",
          "type": "address"
        },
        {
          "indexed": true,
          "internalType": "address",
          "name": "to",
          "type": "address"
        },
        {
          "indexed": true,
          "internalType": "uint256",
          "name": "tokenId",
          "type": "uint256"
        }
      ],
      "name": "Transfer",
      "type": "event"
    },
    {
      "inputs": [
        {
          "internalType": "address",
          "name": "to",
          "type": "address"
        },
        {
          "internalType": "uint256",
          "name": "tokenId",
          "type": "uint256"
        }
      ],
      "name": "approve",
      "outputs": [],
      "stateMutability": "nonpayable",
      "type": "function"
    },
    {
      "inputs": [
        {
          "internalType": "address",
          "name": "owner",
          "type": "address"
        }
      ],
      "name": "balanceOf",
      "outputs": [
        {
          "internalType": "uint256",
          "name": "",
          "type": "uint256"
        }
      ],
      "stateMutability": "view",
      "type": "function"
    },
    {
      "inputs": [
        {
          "internalType": "uint256",
          "name": "tokenId",
          "type": "uint256"
        }
      ],
      "name": "getApproved",
      "outputs": [
        {
          "internalType": "address",
          "name": "",
          "type": "address"
        }
      ],
      "stateMutability": "view",
      "type": "function"
    },
    {
      "inputs": [
        {
          "internalType": "uint256",
          "name": "tokenId",
          "type": "uint256"
        }
      ],
      "name": "getPrice",
      "outputs": [
        {
          "internalType": "uint256",
          "name": "",
          "type": "uint256"
        }
      ],
      "stateMutability": "view",
      "type": "function"
    },
    {
      "inputs": [
        {
          "internalType": "address",
          "name": "owner",
          "type": "address"
        },
        {
          "internalType": "address",
          "name": "operator",
          "type": "address"
        }
      ],
      "name": "isApprovedForAll",
      "outputs": [
        {
          "internalType": "bool",
          "name": "",
          "type": "bool"
        }
      ],
      "stateMutability": "view",
      "type": "function"
    },
    {
      "inputs": [
        {
          "internalType": "address",
          "name": "recipient",
          "type": "address"
        },
        {
          "internalType": "string",
          "name": "tokenURI",
          "type": "string"
        },
        {
          "internalType": "uint256",
          "name": "price",
          "type": "uint256"
        }
      ],
      "name": "mintNFT",
      "outputs": [
        {
          "internalType": "uint256",
          "name": "",
          "type": "uint256"
        }
      ],
      "stateMutability": "nonpayable",
      "type": "function"
    },
    {
      "inputs": [],
      "name": "name",
      "outputs": [
        {
          "internalType": "string",
          "name": "",
          "type": "string"
        }
      ],
      "stateMutability": "view",
      "type": "function"
    },
    {
      "inputs": [],
      "name": "owner",
      "outputs": [
        {
          "internalType": "address",
          "name": "",
          "type": "address"
        }
      ],
      "stateMutability": "view",
      "type": "function"
    },
    {
      "inputs": [
        {
          "internalType": "uint256",
          "name": "tokenId",
          "type": "uint256"
        }
      ],
      "name": "ownerOf",
      "outputs": [
        {
          "internalType": "address",
          "name": "",
          "type": "address"
        }
      ],
      "stateMutability": "view",
      "type": "function"
    },
    {
      "inputs": [
        {
          "internalType": "uint256",
          "name": "tokenId",
          "type": "uint256"
        }
      ],
      "name": "purchaseNFT",
      "outputs": [],
      "stateMutability": "payable",
      "type": "function"
    },
    {
      "inputs": [],
      "name": "renounceOwnership",
      "outputs": [],
      "stateMutability": "nonpayable",
      "type": "function"
    },
    {
      "inputs": [
        {
          "internalType": "address",
          "name": "from",
          "type": "address"
        },
        {
          "internalType": "address",
          "name": "to",
          "type": "address"
        },
        {
          "internalType": "uint256",
          "name": "tokenId",
          "type": "uint256"
        }
      ],
      "name": "safeTransferFrom",
      "outputs": [],
      "stateMutability": "nonpayable",
      "type": "function"
    },
    {
      "inputs": [
        {
          "internalType": "address",
          "name": "from",
          "type": "address"
        },
        {
          "internalType": "address",
          "name": "to",
          "type": "address"
        },
        {
          "internalType": "uint256",
          "name": "tokenId",
          "type": "uint256"
        },
        {
          "internalType": "bytes",
          "name": "data",
          "type": "bytes"
        }
      ],
      "name": "safeTransferFrom",
      "outputs": [],
      "stateMutability": "nonpayable",
      "type": "function"
    },
    {
      "inputs": [
        {
          "internalType": "address",
          "name": "operator",
          "type": "address"
        },
        {
          "internalType": "bool",
          "name": "approved",
          "type": "bool"
        }
      ],
      "name": "setApprovalForAll",
      "outputs": [],
      "stateMutability": "nonpayable",
      "type": "function"
    },
    {
      "inputs": [
        {
          "internalType": "bytes4",
          "name": "interfaceId",
          "type": "bytes4"
        }
      ],
      "name": "supportsInterface",
      "outputs": [
        {
          "internalType": "bool",
          "name": "",
          "type": "bool"
        }
      ],
      "stateMutability": "view",
      "type": "function"
    },
    {
      "inputs": [],
      "name": "symbol",
      "outputs": [
        {
          "internalType": "string",
          "name": "",
          "type": "string"
        }
      ],
      "stateMutability": "view",
      "type": "function"
    },
    {
      "inputs": [
        {
          "internalType": "uint256",
          "name": "tokenId",
          "type": "uint256"
        }
      ],
      "name": "tokenURI",
      "outputs": [
        {
          "internalType": "string",
          "name": "",
          "type": "string"
        }
      ],
      "stateMutability": "view",
      "type": "function"
    },
    {
      "inputs": [],
      "name": "totalSupply",
      "outputs": [
        {
          "internalType": "uint256",
          "name": "",
          "type": "uint256"
        }
      ],
      "stateMutability": "view",
      "type": "function"
    },
    {
      "inputs": [
        {
          "internalType": "address",
          "name": "from",
          "type": "address"
        },
        {
          "internalType": "address",
          "name": "to",
          "type": "address"
        },
        {
          "internalType": "uint256",
          "name": "tokenId",
          "type": "uint256"
        }
      ],
      "name": "transferFrom",
      "outputs": [],
      "stateMutability": "nonpayable",
      "type": "function"
    },
    {
      "inputs": [
        {
          "internalType": "address",
          "name": "newOwner",
          "type": "address"
        }
      ],
      "name": "transferOwnership",
      "outputs": [],
      "stateMutability": "nonpayable",
      "type": "function"
    }
  ],
  "bytecode": "0x60806040523480156200001157600080fd5b50604051620032f4380380620032f4833981810160405281019062000037919062000288565b806040518060400160405280600a81526020017f5a656e6465736b4e4654000000000000000000000000000000000000000000008152506040518060400160405280600481526020017f5a4e4654000000000000000000000000000000000000000000000000000000008152508160009081620000b5919062000534565b508060019081620000c7919062000534565b505050600073ffffffffffffffffffffffffffffffffffffffff168173ffffffffffffffffffffffffffffffffffffffff16036200013f5760006040517f1e4fbdf70000000000000000000000000000000000000000000000000000000081526004016200013691906200062c565b60405180910390fd5b62000150816200015860201b60201c565b505062000649565b6000600760009054906101000a900473ffffffffffffffffffffffffffffffffffffffff16905081600760006101000a81548173ffffffffffffffffffffffffffffffffffffffff021916908373ffffffffffffffffffffffffffffffffffffffff1602179055508173ffffffffffffffffffffffffffffffffffffffff168173ffffffffffffffffffffffffffffffffffffffff167f8be0079c531659141344cd1fd0a4f28419497f9722a3daafe3b4186f6b6457e060405160405180910390a35050565b600080fd5b600073ffffffffffffffffffffffffffffffffffffffff82169050919050565b6000620002508262000223565b9050919050565b620002628162000243565b81146200026e57600080fd5b50565b600081519050620002828162000257565b92915050565b600060208284031215620002a157620002a06200021e565b5b6000620002b18482850162000271565b91505092915050565b600081519050919050565b7f4e487b7100000000000000000000000000000000000000000000000000000000600052604160045260246000fd5b7f4e487b7100000000000000000000000000000000000000000000000000000000600052602260045260246000fd5b600060028204905060018216806200033c57607f821691505b602082108103620003525762000351620002f4565b5b50919050565b60008190508160005260206000209050919050565b60006020601f8301049050919050565b600082821b905092915050565b600060088302620003bc7fffffffffffffffffffffffffffffffffffffffffffffffffffffffffffffffff826200037d565b620003c886836200037d565b95508019841693508086168417925050509392505050565b6000819050919050565b6000819050919050565b6000620004156200040f6200040984620003e0565b620003ea565b620003e0565b9050919050565b6000819050919050565b6200043183620003f4565b6200044962000440826200041c565b8484546200038a565b825550505050565b600090565b6200046062000451565b6200046d81848462000426565b505050565b5b8181101562000495576200048960008262000456565b60018101905062000473565b5050565b601f821115620004e457620004ae8162000358565b620004b9846200036d565b81016020851015620004c9578190505b620004e1620004d8856200036d565b83018262000472565b50505b505050565b600082821c905092915050565b60006200050960001984600802620004e9565b1980831691505092915050565b6000620005248383620004f6565b9150826002028217905092915050565b6200053f82620002ba565b67ffffffffffffffff8111156200055b576200055a620002c5565b5b62000567825462000323565b6200057482828562000499565b600060209050601f831160018114620005ac576000841562000597578287015190505b620005a3858262000516565b86555062000613565b601f198416620005bc8662000358565b60005b82811015620005e657848901518255600182019150602085019450602081019050620005bf565b8683101562000606578489015162000602601f891682620004f6565b8355505b6001600288020188555050505b505050505050565b620006268162000243565b82525050565b60006020820190506200064360008301846200061b565b92915050565b612c9b80620006596000396000f3fe60806040526004361061011f5760003560e01c806370a08231116100a0578063b88d4fde11610064578063b88d4fde146103d8578063c87b56dd14610401578063e75722301461043e578063e985e9c51461047b578063f2fde38b146104b85761011f565b806370a0823114610305578063715018a6146103425780638da5cb5b1461035957806395d89b4114610384578063a22cb465146103af5761011f565b8063150bde03116100e7578063150bde031461022f57806318160ddd1461024b57806323b872dd1461027657806342842e0e1461029f5780636352211e146102c85761011f565b806301ffc9a71461012457806306fdde0314610161578063081812fc1461018c57806308598df0146101c9578063095ea7b314610206575b600080fd5b34801561013057600080fd5b5061014b60048036038101906101469190611fa1565b6104e1565b6040516101589190611fe9565b60405180910390f35b34801561016d57600080fd5b50610176610542565b6040516101839190612094565b60405180910390f35b34801561019857600080fd5b506101b360048036038101906101ae91906120ec565b6105d4565b6040516101c0919061215a565b60405180910390f35b3480156101d557600080fd5b506101f060048036038101906101eb91906122d6565b6105f0565b6040516101fd9190612354565b60405180910390f35b34801561021257600080fd5b5061022d6004803603810190610228919061236f565b610649565b005b610249600480360381019061024491906120ec565b61065f565b005b34801561025757600080fd5b50610260610760565b60405161026d9190612354565b60405180910390f35b34801561028257600080fd5b5061029d600480360381019061029891906123af565b610771565b005b3480156102ab57600080fd5b506102c660048036038101906102c191906123af565b610873565b005b3480156102d457600080fd5b506102ef60048036038101906102ea91906120ec565b610893565b6040516102fc919061215a565b60405180910390f35b34801561031157600080fd5b5061032c60048036038101906103279190612402565b6108a5565b6040516103399190612354565b60405180910390f35b34801561034e57600080fd5b5061035761095f565b005b34801561036557600080fd5b5061036e610973565b60405161037b919061215a565b60405180910390f35b34801561039057600080fd5b5061039961099d565b6040516103a69190612094565b60405180910390f35b3480156103bb57600080fd5b506103d660048036038101906103d1919061245b565b610a2f565b005b3480156103e457600080fd5b506103ff60048036038101906103fa919061253c565b610a45565b005b34801561040d57600080fd5b50610428600480360381019061042391906120ec565b610a62565b6040516104359190612094565b60405180910390f35b34801561044a57600080fd5b50610465600480360381019061046091906120ec565b610b75565b6040516104729190612354565b60405180910390f35b34801561048757600080fd5b506104a2600480360381019061049d91906125bf565b610bda565b6040516104af9190611fe9565b60405180910390f35b3480156104c457600080fd5b506104df60048036038101906104da9190612402565b610c6e565b005b6000634906490660e01b7bffffffffffffffffffffffffffffffffffffffffffffffffffffffff1916827bffffffffffffffffffffffffffffffffffffffffffffffffffffffff1916148061053b575061053a82610cf4565b5b9050919050565b6060600080546105519061262e565b80601f016020809104026020016040519081016040528092919081815260200182805461057d9061262e565b80156105ca5780601f1061059f576101008083540402835291602001916105ca565b820191906000526020600020905b8154815290600101906020018083116105ad57829003601f168201915b5050505050905090565b60006105df82610dd6565b506105e982610e5e565b9050919050565b60006105fa610e9b565b6106046008610f22565b60006106106008610f38565b905061061c8582610f46565b6106268185610f64565b826009600083815260200190815260200160002081905550809150509392505050565b61065b8282610656610fc0565b610fc8565b5050565b61066881610fda565b6106a7576040517f08c379a000000000000000000000000000000000000000000000000000000000815260040161069e906126d1565b60405180910390fd5b60096000828152602001908152602001600020543410156106fd576040517f08c379a00000000000000000000000000000000000000000000000000000000081526004016106f490612763565b60405180910390fd5b600061070882610893565b905061071581338461101b565b8073ffffffffffffffffffffffffffffffffffffffff166108fc349081150290604051600060405180830381858888f1935050505015801561075b573d6000803e3d6000fd5b505050565b600061076c6008610f38565b905090565b600073ffffffffffffffffffffffffffffffffffffffff168273ffffffffffffffffffffffffffffffffffffffff16036107e35760006040517f64a0ae920000000000000000000000000000000000000000000000000000000081526004016107da919061215a565b60405180910390fd5b60006107f783836107f2610fc0565b611188565b90508373ffffffffffffffffffffffffffffffffffffffff168173ffffffffffffffffffffffffffffffffffffffff161461086d578382826040517f64283d7b00000000000000000000000000000000000000000000000000000000815260040161086493929190612783565b60405180910390fd5b50505050565b61088e83838360405180602001604052806000815250610a45565b505050565b600061089e82610dd6565b9050919050565b60008073ffffffffffffffffffffffffffffffffffffffff168273ffffffffffffffffffffffffffffffffffffffff16036109185760006040517f89c62b6400000000000000000000000000000000000000000000000000000000815260040161090f919061215a565b60405180910390fd5b600360008373ffffffffffffffffffffffffffffffffffffffff1673ffffffffffffffffffffffffffffffffffffffff168152602001908152602001600020549050919050565b610967610e9b565b61097160006113a2565b565b6000600760009054906101000a900473ffffffffffffffffffffffffffffffffffffffff16905090565b6060600180546109ac9061262e565b80601f01602080910402602001604051908101604052809291908181526020018280546109d89061262e565b8015610a255780601f106109fa57610100808354040283529160200191610a25565b820191906000526020600020905b815481529060010190602001808311610a0857829003601f168201915b5050505050905090565b610a41610a3a610fc0565b8383611468565b5050565b610a50848484610771565b610a5c848484846115d7565b50505050565b6060610a6d82610dd6565b506000600660008481526020019081526020016000208054610a8e9061262e565b80601f0160208091040260200160405190810160405280929190818152602001828054610aba9061262e565b8015610b075780601f10610adc57610100808354040283529160200191610b07565b820191906000526020600020905b815481529060010190602001808311610aea57829003601f168201915b505050505090506000610b1861178e565b90506000815103610b2d578192505050610b70565b600082511115610b62578082604051602001610b4a9291906127f6565b60405160208183030381529060405292505050610b70565b610b6b846117a5565b925050505b919050565b6000610b8082610fda565b610bbf576040517f08c379a0000000000000000000000000000000000000000000000000000000008152600401610bb69061288c565b60405180910390fd5b60096000838152602001908152602001600020549050919050565b6000600560008473ffffffffffffffffffffffffffffffffffffffff1673ffffffffffffffffffffffffffffffffffffffff16815260200190815260200160002060008373ffffffffffffffffffffffffffffffffffffffff1673ffffffffffffffffffffffffffffffffffffffff16815260200190815260200160002060009054906101000a900460ff16905092915050565b610c76610e9b565b600073ffffffffffffffffffffffffffffffffffffffff168173ffffffffffffffffffffffffffffffffffffffff1603610ce85760006040517f1e4fbdf7000000000000000000000000000000000000000000000000000000008152600401610cdf919061215a565b60405180910390fd5b610cf1816113a2565b50565b60007f80ac58cd000000000000000000000000000000000000000000000000000000007bffffffffffffffffffffffffffffffffffffffffffffffffffffffff1916827bffffffffffffffffffffffffffffffffffffffffffffffffffffffff19161480610dbf57507f5b5e139f000000000000000000000000000000000000000000000000000000007bffffffffffffffffffffffffffffffffffffffffffffffffffffffff1916827bffffffffffffffffffffffffffffffffffffffffffffffffffffffff1916145b80610dcf5750610dce8261180e565b5b9050919050565b600080610de283611878565b9050600073ffffffffffffffffffffffffffffffffffffffff168173ffffffffffffffffffffffffffffffffffffffff1603610e5557826040517f7e273289000000000000000000000000000000000000000000000000000000008152600401610e4c9190612354565b60405180910390fd5b80915050919050565b60006004600083815260200190815260200160002060009054906101000a900473ffffffffffffffffffffffffffffffffffffffff169050919050565b610ea3610fc0565b73ffffffffffffffffffffffffffffffffffffffff16610ec1610973565b73ffffffffffffffffffffffffffffffffffffffff1614610f2057610ee4610fc0565b6040517f118cdaa7000000000000000000000000000000000000000000000000000000008152600401610f17919061215a565b60405180910390fd5b565b6001816000016000828254019250508190555050565b600081600001549050919050565b610f608282604051806020016040528060008152506118b5565b5050565b80600660008481526020019081526020016000209081610f849190612a58565b507ff8e1a15aba9398e019f0b49df1a4fde98ee17ae345cb5f6b5e2c27f5033e8ce782604051610fb49190612354565b60405180910390a15050565b600033905090565b610fd583838360016118d1565b505050565b60008073ffffffffffffffffffffffffffffffffffffffff16610ffc83611878565b73ffffffffffffffffffffffffffffffffffffffff1614159050919050565b600073ffffffffffffffffffffffffffffffffffffffff168273ffffffffffffffffffffffffffffffffffffffff160361108d5760006040517f64a0ae92000000000000000000000000000000000000000000000000000000008152600401611084919061215a565b60405180910390fd5b600061109b83836000611188565b9050600073ffffffffffffffffffffffffffffffffffffffff168173ffffffffffffffffffffffffffffffffffffffff160361110e57816040517f7e2732890000000000000000000000000000000000000000000000000000000081526004016111059190612354565b60405180910390fd5b8373ffffffffffffffffffffffffffffffffffffffff168173ffffffffffffffffffffffffffffffffffffffff1614611182578382826040517f64283d7b00000000000000000000000000000000000000000000000000000000815260040161117993929190612783565b60405180910390fd5b50505050565b60008061119484611878565b9050600073ffffffffffffffffffffffffffffffffffffffff168373ffffffffffffffffffffffffffffffffffffffff16146111d6576111d5818486611a96565b5b600073ffffffffffffffffffffffffffffffffffffffff168173ffffffffffffffffffffffffffffffffffffffff1614611267576112186000856000806118d1565b6001600360008373ffffffffffffffffffffffffffffffffffffffff1673ffffffffffffffffffffffffffffffffffffffff168152602001908152602001600020600082825403925050819055505b600073ffffffffffffffffffffffffffffffffffffffff168573ffffffffffffffffffffffffffffffffffffffff16146112ea576001600360008773ffffffffffffffffffffffffffffffffffffffff1673ffffffffffffffffffffffffffffffffffffffff168152602001908152602001600020600082825401925050819055505b846002600086815260200190815260200160002060006101000a81548173ffffffffffffffffffffffffffffffffffffffff021916908373ffffffffffffffffffffffffffffffffffffffff160217905550838573ffffffffffffffffffffffffffffffffffffffff168273ffffffffffffffffffffffffffffffffffffffff167fddf252ad1be2c89b69c2b068fc378daa952ba7f163c4a11628f55a4df523b3ef60405160405180910390a4809150509392505050565b6000600760009054906101000a900473ffffffffffffffffffffffffffffffffffffffff16905081600760006101000a81548173ffffffffffffffffffffffffffffffffffffffff021916908373ffffffffffffffffffffffffffffffffffffffff1602179055508173ffffffffffffffffffffffffffffffffffffffff168173ffffffffffffffffffffffffffffffffffffffff167f8be0079c531659141344cd1fd0a4f28419497f9722a3daafe3b4186f6b6457e060405160405180910390a35050565b600073ffffffffffffffffffffffffffffffffffffffff168273ffffffffffffffffffffffffffffffffffffffff16036114d957816040517f5b08ba180000000000000000000000000000000000000000000000000000000081526004016114d0919061215a565b60405180910390fd5b80600560008573ffffffffffffffffffffffffffffffffffffffff1673ffffffffffffffffffffffffffffffffffffffff16815260200190815260200160002060008473ffffffffffffffffffffffffffffffffffffffff1673ffffffffffffffffffffffffffffffffffffffff16815260200190815260200160002060006101000a81548160ff0219169083151502179055508173ffffffffffffffffffffffffffffffffffffffff168373ffffffffffffffffffffffffffffffffffffffff167f17307eab39ab6107e8899845ad3d59bd9653f200f220920489ca2b5937696c31836040516115ca9190611fe9565b60405180910390a3505050565b60008373ffffffffffffffffffffffffffffffffffffffff163b1115611788578273ffffffffffffffffffffffffffffffffffffffff1663150b7a0261161b610fc0565b8685856040518563ffffffff1660e01b815260040161163d9493929190612b7f565b6020604051808303816000875af192505050801561167957506040513d601f19601f820116820180604052508101906116769190612be0565b60015b6116fd573d80600081146116a9576040519150601f19603f3d011682016040523d82523d6000602084013e6116ae565b606091505b5060008151036116f557836040517f64a0ae920000000000000000000000000000000000000000000000000000000081526004016116ec919061215a565b60405180910390fd5b805181602001fd5b63150b7a0260e01b7bffffffffffffffffffffffffffffffffffffffffffffffffffffffff1916817bffffffffffffffffffffffffffffffffffffffffffffffffffffffff19161461178657836040517f64a0ae9200000000000000000000000000000000000000000000000000000000815260040161177d919061215a565b60405180910390fd5b505b50505050565b606060405180602001604052806000815250905090565b60606117b082610dd6565b5060006117bb61178e565b905060008151116117db5760405180602001604052806000815250611806565b806117e584611b5a565b6040516020016117f69291906127f6565b6040516020818303038152906040525b915050919050565b60007f01ffc9a7000000000000000000000000000000000000000000000000000000007bffffffffffffffffffffffffffffffffffffffffffffffffffffffff1916827bffffffffffffffffffffffffffffffffffffffffffffffffffffffff1916149050919050565b60006002600083815260200190815260200160002060009054906101000a900473ffffffffffffffffffffffffffffffffffffffff169050919050565b6118bf8383611c28565b6118cc60008484846115d7565b505050565b808061190a5750600073ffffffffffffffffffffffffffffffffffffffff168273ffffffffffffffffffffffffffffffffffffffff1614155b15611a3e57600061191a84610dd6565b9050600073ffffffffffffffffffffffffffffffffffffffff168373ffffffffffffffffffffffffffffffffffffffff161415801561198557508273ffffffffffffffffffffffffffffffffffffffff168173ffffffffffffffffffffffffffffffffffffffff1614155b801561199857506119968184610bda565b155b156119da57826040517fa9fbf51f0000000000000000000000000000000000000000000000000000000081526004016119d1919061215a565b60405180910390fd5b8115611a3c57838573ffffffffffffffffffffffffffffffffffffffff168273ffffffffffffffffffffffffffffffffffffffff167f8c5be1e5ebec7d5bd14f71427d1e84f3dd0314c0f7b2291e5b200ac8c7c3b92560405160405180910390a45b505b836004600085815260200190815260200160002060006101000a81548173ffffffffffffffffffffffffffffffffffffffff021916908373ffffffffffffffffffffffffffffffffffffffff16021790555050505050565b611aa1838383611d21565b611b5557600073ffffffffffffffffffffffffffffffffffffffff168373ffffffffffffffffffffffffffffffffffffffff1603611b1657806040517f7e273289000000000000000000000000000000000000000000000000000000008152600401611b0d9190612354565b60405180910390fd5b81816040517f177e802f000000000000000000000000000000000000000000000000000000008152600401611b4c929190612c0d565b60405180910390fd5b505050565b606060006001611b6984611de2565b01905060008167ffffffffffffffff811115611b8857611b876121ab565b5b6040519080825280601f01601f191660200182016040528015611bba5781602001600182028036833780820191505090505b509050600082602001820190505b600115611c1d578080600190039150507f3031323334353637383961626364656600000000000000000000000000000000600a86061a8153600a8581611c1157611c10612c36565b5b04945060008503611bc8575b819350505050919050565b600073ffffffffffffffffffffffffffffffffffffffff168273ffffffffffffffffffffffffffffffffffffffff1603611c9a5760006040517f64a0ae92000000000000000000000000000000000000000000000000000000008152600401611c91919061215a565b60405180910390fd5b6000611ca883836000611188565b9050600073ffffffffffffffffffffffffffffffffffffffff168173ffffffffffffffffffffffffffffffffffffffff1614611d1c5760006040517f73c6ac6e000000000000000000000000000000000000000000000000000000008152600401611d13919061215a565b60405180910390fd5b505050565b60008073ffffffffffffffffffffffffffffffffffffffff168373ffffffffffffffffffffffffffffffffffffffff1614158015611dd957508273ffffffffffffffffffffffffffffffffffffffff168473ffffffffffffffffffffffffffffffffffffffff161480611d9a5750611d998484610bda565b5b80611dd857508273ffffffffffffffffffffffffffffffffffffffff16611dc083610e5e565b73ffffffffffffffffffffffffffffffffffffffff16145b5b90509392505050565b600080600090507a184f03e93ff9f4daa797ed6e38ed64bf6a1f0100000000000000008310611e40577a184f03e93ff9f4daa797ed6e38ed64bf6a1f0100000000000000008381611e3657611e35612c36565b5b0492506040810190505b6d04ee2d6d415b85acef81000000008310611e7d576d04ee2d6d415b85acef81000000008381611e7357611e72612c36565b5b0492506020810190505b662386f26fc100008310611eac57662386f26fc100008381611ea257611ea1612c36565b5b0492506010810190505b6305f5e1008310611ed5576305f5e1008381611ecb57611eca612c36565b5b0492506008810190505b6127108310611efa576127108381611ef057611eef612c36565b5b0492506004810190505b60648310611f1d5760648381611f1357611f12612c36565b5b0492506002810190505b600a8310611f2c576001810190505b80915050919050565b6000604051905090565b600080fd5b600080fd5b60007fffffffff0000000000000000000000000000000000000000000000000000000082169050919050565b611f7e81611f49565b8114611f8957600080fd5b50565b600081359050611f9b81611f75565b92915050565b600060208284031215611fb757611fb6611f3f565b5b6000611fc584828501611f8c565b91505092915050565b60008115159050919050565b611fe381611fce565b82525050565b6000602082019050611ffe6000830184611fda565b92915050565b600081519050919050565b600082825260208201905092915050565b60005b8381101561203e578082015181840152602081019050612023565b60008484015250505050565b6000601f19601f8301169050919050565b600061206682612004565b612070818561200f565b9350612080818560208601612020565b6120898161204a565b840191505092915050565b600060208201905081810360008301526120ae818461205b565b905092915050565b6000819050919050565b6120c9816120b6565b81146120d457600080fd5b50565b6000813590506120e6816120c0565b92915050565b60006020828403121561210257612101611f3f565b5b6000612110848285016120d7565b91505092915050565b600073ffffffffffffffffffffffffffffffffffffffff82169050919050565b600061214482612119565b9050919050565b61215481612139565b82525050565b600060208201905061216f600083018461214b565b92915050565b61217e81612139565b811461218957600080fd5b50565b60008135905061219b81612175565b92915050565b600080fd5b600080fd5b7f4e487b7100000000000000000000000000000000000000000000000000000000600052604160045260246000fd5b6121e38261204a565b810181811067ffffffffffffffff82111715612202576122016121ab565b5b80604052505050565b6000612215611f35565b905061222182826121da565b919050565b600067ffffffffffffffff821115612241576122406121ab565b5b61224a8261204a565b9050602081019050919050565b82818337600083830152505050565b600061227961227484612226565b61220b565b905082815260208101848484011115612295576122946121a6565b5b6122a0848285612257565b509392505050565b600082601f8301126122bd576122bc6121a1565b5b81356122cd848260208601612266565b91505092915050565b6000806000606084860312156122ef576122ee611f3f565b5b60006122fd8682870161218c565b935050602084013567ffffffffffffffff81111561231e5761231d611f44565b5b61232a868287016122a8565b925050604061233b868287016120d7565b9150509250925092565b61234e816120b6565b82525050565b60006020820190506123696000830184612345565b92915050565b6000806040838503121561238657612385611f3f565b5b60006123948582860161218c565b92505060206123a5858286016120d7565b9150509250929050565b6000806000606084860312156123c8576123c7611f3f565b5b60006123d68682870161218c565b93505060206123e78682870161218c565b92505060406123f8868287016120d7565b9150509250925092565b60006020828403121561241857612417611f3f565b5b60006124268482850161218c565b91505092915050565b61243881611fce565b811461244357600080fd5b50565b6000813590506124558161242f565b92915050565b6000806040838503121561247257612471611f3f565b5b60006124808582860161218c565b925050602061249185828601612446565b9150509250929050565b600067ffffffffffffffff8211156124b6576124b56121ab565b5b6124bf8261204a565b9050602081019050919050565b60006124df6124da8461249b565b61220b565b9050828152602081018484840111156124fb576124fa6121a6565b5b612506848285612257565b509392505050565b600082601f830112612523576125226121a1565b5b81356125338482602086016124cc565b91505092915050565b6000806000806080858703121561255657612555611f3f565b5b60006125648782880161218c565b94505060206125758782880161218c565b9350506040612586878288016120d7565b925050606085013567ffffffffffffffff8111156125a7576125a6611f44565b5b6125b38782880161250e565b91505092959194509250565b600080604083850312156125d6576125d5611f3f565b5b60006125e48582860161218c565b92505060206125f58582860161218c565b9150509250929050565b7f4e487b7100000000000000000000000000000000000000000000000000000000600052602260045260246000fd5b6000600282049050600182168061264657607f821691505b602082108103612659576126586125ff565b5b50919050565b7f4552433732313a20707572636861736520717565727920666f72206e6f6e657860008201527f697374656e7420746f6b656e0000000000000000000000000000000000000000602082015250565b60006126bb602c8361200f565b91506126c68261265f565b604082019050919050565b600060208201905081810360008301526126ea816126ae565b9050919050565b7f496e73756666696369656e742066756e647320746f207075726368617365204e60008201527f4654000000000000000000000000000000000000000000000000000000000000602082015250565b600061274d60228361200f565b9150612758826126f1565b604082019050919050565b6000602082019050818103600083015261277c81612740565b9050919050565b6000606082019050612798600083018661214b565b6127a56020830185612345565b6127b2604083018461214b565b949350505050565b600081905092915050565b60006127d082612004565b6127da81856127ba565b93506127ea818560208601612020565b80840191505092915050565b600061280282856127c5565b915061280e82846127c5565b91508190509392505050565b7f4552433732313a20507269636520717565727920666f72206e6f6e657869737460008201527f656e7420746f6b656e0000000000000000000000000000000000000000000000602082015250565b600061287660298361200f565b91506128818261281a565b604082019050919050565b600060208201905081810360008301526128a581612869565b9050919050565b60008190508160005260206000209050919050565b60006020601f8301049050919050565b600082821b905092915050565b60006008830261290e7fffffffffffffffffffffffffffffffffffffffffffffffffffffffffffffffff826128d1565b61291886836128d1565b95508019841693508086168417925050509392505050565b6000819050919050565b600061295561295061294b846120b6565b612930565b6120b6565b9050919050565b6000819050919050565b61296f8361293a565b61298361297b8261295c565b8484546128de565b825550505050565b600090565b61299861298b565b6129a3818484612966565b505050565b5b818110156129c7576129bc600082612990565b6001810190506129a9565b5050565b601f821115612a0c576129dd816128ac565b6129e6846128c1565b810160208510156129f5578190505b612a09612a01856128c1565b8301826129a8565b50505b505050565b600082821c905092915050565b6000612a2f60001984600802612a11565b1980831691505092915050565b6000612a488383612a1e565b9150826002028217905092915050565b612a6182612004565b67ffffffffffffffff811115612a7a57612a796121ab565b5b612a84825461262e565b612a8f8282856129cb565b600060209050601f831160018114612ac25760008415612ab0578287015190505b612aba8582612a3c565b865550612b22565b601f198416612ad0866128ac565b60005b82811015612af857848901518255600182019150602085019450602081019050612ad3565b86831015612b155784890151612b11601f891682612a1e565b8355505b6001600288020188555050505b505050505050565b600081519050919050565b600082825260208201905092915050565b6000612b5182612b2a565b612b5b8185612b35565b9350612b6b818560208601612020565b612b748161204a565b840191505092915050565b6000608082019050612b94600083018761214b565b612ba1602083018661214b565b612bae6040830185612345565b8181036060830152612bc08184612b46565b905095945050505050565b600081519050612bda81611f75565b92915050565b600060208284031215612bf657612bf5611f3f565b5b6000612c0484828501612bcb565b91505092915050565b6000604082019050612c22600083018561214b565b612c2f6020830184612345565b9392505050565b7f4e487b7100000000000000000000000000000000000000000000000000000000600052601260045260246000fdfea2646970667358221220d9e72846a313c91346b7f8e382a6a80eae25528acaf79d4e00990738facfff4f64736f6c63430008180033",
  "linkReferences": {},
  "deployedLinkReferences": {}
}